:100000000C942A000C943F000C943F000C943F0089
:100010000C943F000C943F000C943F000C943F0064
:100020000C943F000C943F000C943F000C943F0054
:100030000C943F000C943F000C943F000C943F0044
:100040000C943F000C943F000C943F000C943F0034
:100050000C943F0011241FBECFE5D8E0DEBFCDBF1A
:1000600010E0A0E6B0E0EAEDF7E002C005900D92E6
:10007000A836B107D9F70E94B0000C94EB030C949A
:100080000000C19A82E08A95F1F700C0C1988FE91B
:100090009FE00197F1F700C00000089598B39F70AA
:1000A00098BB98B3807F982B98BB0C944100CF935A
:1000B000DF930F92CDB7DEB78983C09889810E9404
:1000C0004E0089818295807F0F90DF91CF910C94B3
:1000D0004E00CF93DF930F92CDB7DEB78983C09ADE
:1000E00089810E944E0089818295807F0F90DF91E7
:1000F000CF910C944E008FEF87BB8FE39CE9019763
:10010000F1F700C0000080E30E944E0080E30E94EF
:100110004E0080E20E944E0088E20E9457008CE070
:100120000E94570081E00E94570086E00C9457001F
:10013000CF93DF93EC018881811103C0DF91CF91D0
:10014000089521960E946900F6CF80E487B986E879
:1001500086B90895369A3699FECF84B195B108953F
:10016000CDB7DEB760970FB6F894DEBF0FBECDBF38
:100170008FEF84BB0E947B000E94A5007E012FEFC1
:10018000E21AF20A0E94AA00880F892F881F990B91
:100190009195082F10E021E001C0220F8A95EAF71F
:1001A00025BB81E00E9457000F5F1F4F1F930F93E5
:1001B00080E690E09F938F93FF92EF920E94F3006E
:1001C000C7010E9498003FEF81EE94E031508040DB
:1001D0009040E1F700C000000F900F900F900F903B
:1001E0000F900F90CFCFAEE0B0E0E9EFF0E00C94CD
:1001F000C40386E08C832B893C8929833A838FEF63
:100200009FE78D839E83AE01495E5F4F6D897E8936
:10021000CE0101960E941701EF81F8852B893C8958
:10022000E20FF31F10822E96E2E00C94E003ABE0A5
:10023000B0E0EDE1F1E00C94B7036C017B018A01C1
:10024000FC0116821782838181FFDFC13AE0532EC1
:10025000F6012381F70123FD859123FF81917F0121
:10026000811509F437C1853239F423FD959123FFB7
:1002700091917F01953229F4B60190E00E941E030E
:10028000E7CF30E0912C612C712CF0E27F1640F525
:100290009B32D9F058F49032D1F09332F1F09E3283
:1002A00091F576FC17C1689476F806C09D3291F0FE
:1002B0009033C1F4689470F8F70123FD959123FF02
:1002C00091917F019111E1CF28C0689471F86894F1
:1002D00072F8F2CF689473F8EFCF689474F8ECCFAB
:1002E00077FC1BC080ED890F8A30C8F676FE05C00A
:1002F000959C800D1124982EDFCF659C800D1124D4
:10030000682E7F2AD9CF9C3619F4689477F8D4CF19
:100310009C3409F445C0983679F2892F8F7D855435
:10032000833008F43FC0933609F461C0933709F471
:100330006BC0933509F477C0943619F0993609F0FB
:10034000A4C0F80177FE9AC0619171918191919159
:100350008F01272D2F76822E97FF04C00E94AC03B9
:10036000689487F82AE030E05E014FEFA41AB40ADF
:10037000A5010E944E03782E7A1886FECFC0882DE4
:100380008E7F791408F0C9C084FE1DC182FC11C1A2
:100390002EEE8222B92C882D867809F4CBC00EC1AE
:1003A00031E08ACF311501F1085F1F4F8FE3898358
:1003B00021E0822E912C5E012FEFA21AB20AE8945E
:1003C00077F873FC03C086149104F0F18114910452
:1003D00009F041C0611409F43BCFB60180E290E01E
:1003E0000E941E036A94F6CF0C5F1F4FDFCFF80107
:1003F000808189830E5F1F4F91E0892E912C5E01D1
:10040000FFEFAF1ABF0ADBCFF801A190B1908F01C7
:10041000692D70E076FC02C06FEF7FEFC5010E948E
:1004200013034C01CCCFF801A190B1908F01692D3D
:1004300070E076FC02C06FEF7FEFC5010E940803F9
:100440004C01689477F8BDCFB60180E290E00E943D
:100450001E036A94B8CFF50177FC859177FE8191F0
:100460005F01B60190E00E941E0381E0611001C0AF
:1004700080E0681AF1E08F1A9108A8CF619171911C
:10048000872F880F880B982F63CF9537C9F4872C57
:10049000E89484F82AE030E0F80187FE39C06191E1
:1004A0007191819191918F015E01FFEFAF1ABF0AA7
:1004B000A5010E944E03782E7A18E89487F85DCF44
:1004C000872D897F882E903799F058F49835A9F0B8
:1004D0009F36D9F0F601868197812B96EFE00C9438
:1004E000D3039837B9F774FC05C020E130E0D4CFCE
:1004F000689484F8689482F8F8CF74FE03C0E72DFE
:10050000E6608E2E20E132E0C7CF28E030E0C4CF95
:100510006191719180E090E0C6CF882EB72C84FE67
:100520003ACFFE01E70DF11D8081803309F044C010
:1005300049EE842283FC0EC080FE51C0972CB61475
:1005400018F4960C9B18B62C862D8B196B1408F496
:1005500080E0B80EB61408F044C06B1884FE43C0A7
:10056000B60180E390E00E941E0382FE09C088E588
:1005700090E081FC02C088E790E0B6010E941E0373
:100580007914E0F15E018FEFA81AB80A7A9482E03C
:10059000882E912C8C0E9D1E870C911CF40182914B
:1005A0004F01B60190E00E941E038A149B04B1F72C
:1005B00011CFB92C882EB5CF82FC02C0B394BACF2C
:1005C000B394B394B7CFB92C882EE5CEB60180E2B0
:1005D00090E00E941E03A394A614C0F3B5CFAB2CE9
:1005E000FBCF612CBBCF882D867851F280E281FC55
:1005F0008BE287FC8DE2B60190E0C0CFB60180E3CC
:1006000090E00E941E039A94BBCF8FEF9FEF65CFBF
:10061000FC010590615070400110D8F780959095CD
:100620008E0F9F1F0895FC016150704001900110D2
:10063000D8F7809590958E0F9F1F08950F931F9365
:10064000CF93DF93182F092FEB018B8181FD09C018
:100650000FEF1FEF812F902FDF91CF911F910F91FF
:10066000089582FF14C02E813F818C819D812817BF
:1006700039073CF4E881F981CF0101968883998399
:1006800010838E819F8101968E839F83E3CFE885BF
:10069000F985812F0995892BA1F3DACFFA01AA27D1
:1006A000283051F1203181F1E8946F936E7F6E5FB5
:1006B0007F4F8F4F9F4FAF4FB1E03ED0B4E03CD063
:1006C000670F781F891F9A1FA11D680F791F8A1F46
:1006D000911DA11D6A0F711D811D911DA11D20D0AD
:1006E00009F468943F912AE0269F11243019305D67
:1006F0003193DEF6CF010895462F4770405D419358
:10070000B3E00FD0C9F7F6CF462F4F70405D4A33A4
:1007100018F0495D31FD4052419302D0A9F7EACF6C
:10072000B4E0A6959795879577956795BA95C9F79B
:1007300000976105710508959B01AC010A2E06948E
:100740005795479537952795BA95C9F7620F731F47
:10075000841F951FA01D08959095809570956195B3
:100760007F4F8F4F9F4F08952F923F924F925F92EE
:100770006F927F928F929F92AF92BF92CF92DF92B1
:10078000EF92FF920F931F93CF93DF93CDB7DEB716
:10079000CA1BDB0B0FB6F894DEBF0FBECDBF0994AA
:1007A0002A88398848885F846E847D848C849B8401
:1007B000AA84B984C884DF80EE80FD800C811B810F
:1007C000AA81B981CE0FD11D0FB6F894DEBF0FBE3E
:0A07D000CDBFED010895F894FFCFAE
:0807DA004C4544202564000099
:00000001FF
